{
  "_format": "hh3-artifact-1",
  "contractName": "DateLottery",
  "sourceName": "contracts/DateLottery.sol",
  "abi": [
    {
      "inputs": [],
      "stateMutability": "nonpayable",
      "type": "constructor"
    },
    {
      "anonymous": false,
      "inputs": [
        {
          "indexed": false,
          "internalType": "address",
          "name": "member",
          "type": "address"
        },
        {
          "indexed": false,
          "internalType": "uint256",
          "name": "groupId",
          "type": "uint256"
        }
      ],
      "name": "BallotSubmitted",
      "type": "event"
    },
    {
      "anonymous": false,
      "inputs": [
        {
          "indexed": false,
          "internalType": "uint256",
          "name": "date",
          "type": "uint256"
        }
      ],
      "name": "DateAdded",
      "type": "event"
    },
    {
      "anonymous": false,
      "inputs": [
        {
          "indexed": false,
          "internalType": "uint256",
          "name": "groupId",
          "type": "uint256"
        },
        {
          "indexed": false,
          "internalType": "uint256",
          "name": "date",
          "type": "uint256"
        }
      ],
      "name": "DateAssigned",
      "type": "event"
    },
    {
      "anonymous": false,
      "inputs": [
        {
          "indexed": false,
          "internalType": "uint256",
          "name": "date",
          "type": "uint256"
        }
      ],
      "name": "DateRemoved",
      "type": "event"
    },
    {
      "anonymous": false,
      "inputs": [
        {
          "indexed": false,
          "internalType": "uint256",
          "name": "groupId",
          "type": "uint256"
        }
      ],
      "name": "GroupAdded",
      "type": "event"
    },
    {
      "anonymous": false,
      "inputs": [
        {
          "indexed": false,
          "internalType": "uint256",
          "name": "groupId",
          "type": "uint256"
        }
      ],
      "name": "GroupRemoved",
      "type": "event"
    },
    {
      "anonymous": false,
      "inputs": [
        {
          "indexed": false,
          "internalType": "uint256",
          "name": "groupId",
          "type": "uint256"
        },
        {
          "indexed": false,
          "internalType": "address",
          "name": "member",
          "type": "address"
        }
      ],
      "name": "MemberAdded",
      "type": "event"
    },
    {
      "anonymous": false,
      "inputs": [
        {
          "indexed": false,
          "internalType": "uint256",
          "name": "groupId",
          "type": "uint256"
        },
        {
          "indexed": false,
          "internalType": "address",
          "name": "member",
          "type": "address"
        }
      ],
      "name": "MemberRemoved",
      "type": "event"
    },
    {
      "anonymous": false,
      "inputs": [],
      "name": "VotingClosed",
      "type": "event"
    },
    {
      "anonymous": false,
      "inputs": [],
      "name": "VotingOpened",
      "type": "event"
    },
    {
      "stateMutability": "payable",
      "type": "fallback"
    },
    {
      "inputs": [
        {
          "internalType": "uint256",
          "name": "date",
          "type": "uint256"
        }
      ],
      "name": "addDate",
      "outputs": [],
      "stateMutability": "nonpayable",
      "type": "function"
    },
    {
      "inputs": [
        {
          "internalType": "uint256",
          "name": "groupId",
          "type": "uint256"
        },
        {
          "internalType": "string",
          "name": "name",
          "type": "string"
        }
      ],
      "name": "addGroup",
      "outputs": [],
      "stateMutability": "nonpayable",
      "type": "function"
    },
    {
      "inputs": [
        {
          "internalType": "uint256",
          "name": "groupId",
          "type": "uint256"
        },
        {
          "internalType": "address",
          "name": "member",
          "type": "address"
        }
      ],
      "name": "addMember",
      "outputs": [],
      "stateMutability": "nonpayable",
      "type": "function"
    },
    {
      "inputs": [
        {
          "internalType": "uint256",
          "name": "",
          "type": "uint256"
        }
      ],
      "name": "assignedDate",
      "outputs": [
        {
          "internalType": "uint256",
          "name": "",
          "type": "uint256"
        }
      ],
      "stateMutability": "view",
      "type": "function"
    },
    {
      "inputs": [],
      "name": "closeVoting",
      "outputs": [],
      "stateMutability": "nonpayable",
      "type": "function"
    },
    {
      "inputs": [
        {
          "internalType": "uint256",
          "name": "",
          "type": "uint256"
        }
      ],
      "name": "dateExists",
      "outputs": [
        {
          "internalType": "bool",
          "name": "",
          "type": "bool"
        }
      ],
      "stateMutability": "view",
      "type": "function"
    },
    {
      "inputs": [
        {
          "internalType": "uint256",
          "name": "",
          "type": "uint256"
        }
      ],
      "name": "dates",
      "outputs": [
        {
          "internalType": "uint256",
          "name": "",
          "type": "uint256"
        }
      ],
      "stateMutability": "view",
      "type": "function"
    },
    {
      "inputs": [
        {
          "internalType": "uint256",
          "name": "groupId",
          "type": "uint256"
        }
      ],
      "name": "getAssignment",
      "outputs": [
        {
          "internalType": "uint256",
          "name": "",
          "type": "uint256"
        }
      ],
      "stateMutability": "view",
      "type": "function"
    },
    {
      "inputs": [
        {
          "internalType": "uint256",
          "name": "groupId",
          "type": "uint256"
        },
        {
          "internalType": "uint256",
          "name": "dateIndex",
          "type": "uint256"
        }
      ],
      "name": "getBordaScore",
      "outputs": [
        {
          "internalType": "uint256",
          "name": "",
          "type": "uint256"
        }
      ],
      "stateMutability": "view",
      "type": "function"
    },
    {
      "inputs": [],
      "name": "getDates",
      "outputs": [
        {
          "internalType": "uint256[]",
          "name": "",
          "type": "uint256[]"
        }
      ],
      "stateMutability": "view",
      "type": "function"
    },
    {
      "inputs": [],
      "name": "getGroupIds",
      "outputs": [
        {
          "internalType": "uint256[]",
          "name": "",
          "type": "uint256[]"
        }
      ],
      "stateMutability": "view",
      "type": "function"
    },
    {
      "inputs": [
        {
          "internalType": "uint256",
          "name": "groupId",
          "type": "uint256"
        }
      ],
      "name": "getGroupMembers",
      "outputs": [
        {
          "internalType": "address[]",
          "name": "",
          "type": "address[]"
        }
      ],
      "stateMutability": "view",
      "type": "function"
    },
    {
      "inputs": [
        {
          "internalType": "uint256",
          "name": "groupId",
          "type": "uint256"
        }
      ],
      "name": "getGroupName",
      "outputs": [
        {
          "internalType": "string",
          "name": "",
          "type": "string"
        }
      ],
      "stateMutability": "view",
      "type": "function"
    },
    {
      "inputs": [
        {
          "internalType": "uint256",
          "name": "",
          "type": "uint256"
        }
      ],
      "name": "groupIds",
      "outputs": [
        {
          "internalType": "uint256",
          "name": "",
          "type": "uint256"
        }
      ],
      "stateMutability": "view",
      "type": "function"
    },
    {
      "inputs": [
        {
          "internalType": "address",
          "name": "",
          "type": "address"
        }
      ],
      "name": "hasVoted",
      "outputs": [
        {
          "internalType": "bool",
          "name": "",
          "type": "bool"
        }
      ],
      "stateMutability": "view",
      "type": "function"
    },
    {
      "inputs": [
        {
          "internalType": "address",
          "name": "",
          "type": "address"
        }
      ],
      "name": "memberGroup",
      "outputs": [
        {
          "internalType": "uint256",
          "name": "",
          "type": "uint256"
        }
      ],
      "stateMutability": "view",
      "type": "function"
    },
    {
      "inputs": [],
      "name": "openVoting",
      "outputs": [],
      "stateMutability": "nonpayable",
      "type": "function"
    },
    {
      "inputs": [],
      "name": "owner",
      "outputs": [
        {
          "internalType": "address",
          "name": "",
          "type": "address"
        }
      ],
      "stateMutability": "view",
      "type": "function"
    },
    {
      "inputs": [],
      "name": "phase",
      "outputs": [
        {
          "internalType": "enum DateLottery.Phase",
          "name": "",
          "type": "uint8"
        }
      ],
      "stateMutability": "view",
      "type": "function"
    },
    {
      "inputs": [
        {
          "internalType": "uint256",
          "name": "date",
          "type": "uint256"
        }
      ],
      "name": "removeDate",
      "outputs": [],
      "stateMutability": "nonpayable",
      "type": "function"
    },
    {
      "inputs": [
        {
          "internalType": "uint256",
          "name": "groupId",
          "type": "uint256"
        }
      ],
      "name": "removeGroup",
      "outputs": [],
      "stateMutability": "nonpayable",
      "type": "function"
    },
    {
      "inputs": [
        {
          "internalType": "uint256",
          "name": "groupId",
          "type": "uint256"
        },
        {
          "internalType": "address",
          "name": "member",
          "type": "address"
        }
      ],
      "name": "removeMember",
      "outputs": [],
      "stateMutability": "nonpayable",
      "type": "function"
    },
    {
      "inputs": [],
      "name": "resolve",
      "outputs": [],
      "stateMutability": "nonpayable",
      "type": "function"
    },
    {
      "inputs": [
        {
          "internalType": "uint256[]",
          "name": "rankedDates",
          "type": "uint256[]"
        }
      ],
      "name": "submitBallot",
      "outputs": [],
      "stateMutability": "nonpayable",
      "type": "function"
    },
    {
      "stateMutability": "payable",
      "type": "receive"
    }
  ],
  "bytecode": "0x60a060405234801561000f575f5ffd5b50336080525f805460ff191690556080516127fd61007b5f395f81816103de0152818161055201528181610b6f01528181610d2c0152818161103a0152818161125c01528181611511015281816115b5015281816117b301528181611d4b015261205201526127fd5ff3fe60806040526004361061014e575f3560e01c80636be7658b116100b5578063affc06701161006e578063affc067014610446578063b1c9fe6e1461045a578063c02b8b2c1461047f578063c631b29214610493578063eba9f245146104a7578063ebe59152146104c657610174565b80636be7658b1461035157806374d0a676146103705780637f26081d1461038f578063877e5f7f146103ae5780638da5cb5b146103cd578063a5a86d2f1461041857610174565b806336cc81301161010757806336cc8130146102705780634093d7a11461029c5780634bb683a3146102c95780635133ae24146102f45780635e387905146103135780635fe1410d1461033257610174565b806309eef43e1461018c57806316441813146101cf5780632810e1d6146101f057806329a6ca321461020657806333ca93d61461023257806336b2b4c21461025157610174565b366101745760405162461bcd60e51b815260040161016b90612271565b60405180910390fd5b60405162461bcd60e51b815260040161016b90612271565b348015610197575f5ffd5b506101ba6101a63660046122d7565b60066020525f908152604090205460ff1681565b60405190151581526020015b60405180910390f35b3480156101da575f5ffd5b506101e36104f1565b6040516101c691906122f7565b3480156101fb575f5ffd5b50610204610547565b005b348015610211575f5ffd5b50610225610220366004612339565b610a93565b6040516101c69190612350565b34801561023d575f5ffd5b5061020461024c366004612339565b610b64565b34801561025c575f5ffd5b5061020461026b366004612339565b610d21565b34801561027b575f5ffd5b5061028f61028a366004612339565b610eed565b6040516101c69190612385565b3480156102a7575f5ffd5b506102bb6102b6366004612339565b610f89565b6040519081526020016101c6565b3480156102d4575f5ffd5b506102bb6102e3366004612339565b60086020525f908152604090205481565b3480156102ff575f5ffd5b506102bb61030e366004612339565b610fa8565b34801561031e575f5ffd5b506102bb61032d366004612339565b610fb7565b34801561033d575f5ffd5b5061020461034c366004612339565b61102f565b34801561035c575f5ffd5b5061020461036b3660046123c5565b611251565b34801561037b575f5ffd5b5061020461038a3660046123c5565b611506565b34801561039a575f5ffd5b506102046103a93660046123ef565b6117a8565b3480156103b9575f5ffd5b506102046103c8366004612466565b61198e565b3480156103d8575f5ffd5b506104007f000000000000000000000000000000000000000000000000000000000000000081565b6040516001600160a01b0390911681526020016101c6565b348015610423575f5ffd5b506101ba610432366004612339565b60026020525f908152604090205460ff1681565b348015610451575f5ffd5b50610204611d40565b348015610465575f5ffd5b505f546104729060ff1681565b6040516101c691906124eb565b34801561048a575f5ffd5b506101e3611ff3565b34801561049e575f5ffd5b50610204612047565b3480156104b2575f5ffd5b506102bb6104c1366004612511565b6120fb565b3480156104d1575f5ffd5b506102bb6104e03660046122d7565b60056020525f908152604090205481565b6060600180548060200260200160405190810160405280929190818152602001828054801561053d57602002820191905f5260205f20905b815481526020019060010190808311610529575b5050505050905090565b336001600160a01b037f0000000000000000000000000000000000000000000000000000000000000000161461058f5760405162461bcd60e51b815260040161016b90612531565b6002805f5460ff1660038111156105a8576105a86124d7565b146105c55760405162461bcd60e51b815260040161016b90612575565b6003546001545f8267ffffffffffffffff8111156105e5576105e56125bd565b60405190808252806020026020018201604052801561060e578160200160208202803683370190505b5090505f5b838110156106ab575f6003828154811061062f5761062f6125d1565b5f9182526020822001549150805b85811015610682575f838152600760205260409020805482908110610664576106646125d1565b905f5260205f2001548261067891906125f9565b915060010161063d565b5080848481518110610696576106966125d1565b60209081029190910101525050600101610613565b505f8367ffffffffffffffff8111156106c6576106c66125bd565b6040519080825280602002602001820160405280156106ef578160200160208202803683370190505b5090505f5b8481101561073d576003818154811061070f5761070f6125d1565b905f5260205f20015482828151811061072a5761072a6125d1565b60209081029190910101526001016106f4565b505f8367ffffffffffffffff811115610758576107586125bd565b604051908082528060200260200182016040528015610781578160200160208202803683370190505b5090505f44426040516020016107a1929190918252602082015260400190565b60408051601f19818403018152919052805160209091012090505f5b86811015610a7d575f6107d0828961260c565b90505f805b8281101561080c578781815181106107ef576107ef6125d1565b60200260200101518261080291906125f9565b91506001016107d5565b505f815f036108265761081f838661261f565b905061088e565b5f610831838761261f565b90505f61083f60018661260c565b92505f5b8581101561088a578a818151811061085d5761085d6125d1565b60200260200101518261087091906125f9565b9150818310156108825780935061088a565b600101610843565b5050505b5f8782815181106108a1576108a16125d1565b602090810291909101015190505f195f805b8c811015610927578981815181106108cd576108cd6125d1565b602002602001015161091f575f8481526007602052604081208054839081106108f8576108f86125d1565b905f5260205f20015490505f1984148061091157508281115b1561091d578092508193505b505b6001016108b3565b505f6001838154811061093c5761093c6125d1565b905f5260205f200154905060018a848151811061095b5761095b6125d1565b9115156020928302919091018201525f8581526008825260409081902083905580518681529182018390527f4a6830ca7221d53b75685a41f194ae7131f2419bc496333799dbbaf525e8f111910160405180910390a18a6109bd60018961260c565b815181106109cd576109cd6125d1565b60200260200101518b86815181106109e7576109e76125d1565b60209081029190910101528b6109fe60018961260c565b81518110610a0e57610a0e6125d1565b60200260200101518c8681518110610a2857610a286125d1565b6020026020010181815250508888604051602001610a50929190918252602082015260400190565b60408051601f198184030181529190528051602090910120985050600190960195506107bd945050505050565b50505f805460ff19166003179055505050505050565b5f8181526004602052604090206002015460609060ff16610ac65760405162461bcd60e51b815260040161016b9061263e565b5f8281526004602052604090206001018054610ae190612675565b80601f0160208091040260200160405190810160405280929190818152602001828054610b0d90612675565b8015610b585780601f10610b2f57610100808354040283529160200191610b58565b820191905f5260205f20905b815481529060010190602001808311610b3b57829003601f168201915b50505050509050919050565b336001600160a01b037f00000000000000000000000000000000000000000000000000000000000000001614610bac5760405162461bcd60e51b815260040161016b90612531565b5f805f5460ff166003811115610bc457610bc46124d7565b14610be15760405162461bcd60e51b815260040161016b90612575565b5f8211610c3b5760405162461bcd60e51b815260206004820152602260248201527f446174654c6f74746572793a2064617465206d757374206265206e6f6e2d7a65604482015261726f60f01b606482015260840161016b565b5f8281526002602052604090205460ff1615610c995760405162461bcd60e51b815260206004820152601f60248201527f446174654c6f74746572793a206461746520616c726561647920616464656400604482015260640161016b565b5f82815260026020526040808220805460ff191660019081179091558054808201825592527fb10e2d527612073b26eecdfd717e6a320cf44b4afac2b0732d9fcbe2b7fa0cf6909101839055517f686800b59fbabb941a05fc393b2f92823caee08f1a09520e0ab667b20d21f7f690610d159084815260200190565b60405180910390a15050565b336001600160a01b037f00000000000000000000000000000000000000000000000000000000000000001614610d695760405162461bcd60e51b815260040161016b90612531565b5f805f5460ff166003811115610d8157610d816124d7565b14610d9e5760405162461bcd60e51b815260040161016b90612575565b5f8281526002602052604090205460ff16610dfb5760405162461bcd60e51b815260206004820152601b60248201527f446174654c6f74746572793a2064617465206e6f7420666f756e640000000000604482015260640161016b565b5f828152600260205260408120805460ff19169055600154905b81811015610eb3578360018281548110610e3157610e316125d1565b905f5260205f20015403610eab576001610e4b818461260c565b81548110610e5b57610e5b6125d1565b905f5260205f20015460018281548110610e7757610e776125d1565b5f918252602090912001556001805480610e9357610e936126ad565b600190038181905f5260205f20015f90559055610eb3565b600101610e15565b506040518381527f1e40e0e929fe212411962024f7adc133a0ea13f52e08921d886243a61b910257906020015b60405180910390a1505050565b5f8181526004602052604090206002015460609060ff16610f205760405162461bcd60e51b815260040161016b9061263e565b5f8281526004602090815260409182902060030180548351818402810184019094528084529091830182828015610b5857602002820191905f5260205f20905b81546001600160a01b03168152600190910190602001808311610f605750505050509050919050565b60038181548110610f98575f80fd5b5f91825260209091200154905081565b60018181548110610f98575f80fd5b5f60035f5460ff166003811115610fd057610fd06124d7565b1461101d5760405162461bcd60e51b815260206004820152601d60248201527f446174654c6f74746572793a206e6f7420796574207265736f6c766564000000604482015260640161016b565b505f9081526008602052604090205490565b336001600160a01b037f000000000000000000000000000000000000000000000000000000000000000016146110775760405162461bcd60e51b815260040161016b90612531565b5f805f5460ff16600381111561108f5761108f6124d7565b146110ac5760405162461bcd60e51b815260040161016b90612575565b5f8281526004602052604090206002015460ff166110dc5760405162461bcd60e51b815260040161016b9061263e565b5f828152600460205260408120600301905b81548110156111385760055f83838154811061110c5761110c6125d1565b5f9182526020808320909101546001600160a01b031683528201929092526040018120556001016110ee565b505f8381526004602052604081208181559061115760018301826121bf565b60028201805460ff19169055611170600383015f6121f9565b50506003545f5b81811015611216578460038281548110611193576111936125d1565b905f5260205f2001540361120e5760036111ae60018461260c565b815481106111be576111be6125d1565b905f5260205f200154600382815481106111da576111da6125d1565b5f9182526020909120015560038054806111f6576111f66126ad565b600190038181905f5260205f20015f90559055611216565b600101611177565b506040518481527ffd132ec9e11063907001f1b4412752c57b09723015bc730bdf82d825476b8f35906020015b60405180910390a150505050565b336001600160a01b037f000000000000000000000000000000000000000000000000000000000000000016146112995760405162461bcd60e51b815260040161016b90612531565b5f805f5460ff1660038111156112b1576112b16124d7565b146112ce5760405162461bcd60e51b815260040161016b90612575565b5f8381526004602052604090206002015460ff166112fe5760405162461bcd60e51b815260040161016b9061263e565b6001600160a01b0382165f9081526005602052604090205483146113735760405162461bcd60e51b815260206004820152602660248201527f446174654c6f74746572793a2061646472657373206e6f7420696e207468697360448201526502067726f75760d41b606482015260840161016b565b5f8381526004602081815260408084206001600160a01b0387168552928301909152822054600390910191906113ab9060019061260c565b82549091505f906113be9060019061260c565b9050808214611466575f8382815481106113da576113da6125d1565b905f5260205f20015f9054906101000a90046001600160a01b031690508084848154811061140a5761140a6125d1565b5f91825260209091200180546001600160a01b0319166001600160a01b039290921691909117905561143d8360016125f9565b5f8881526004602081815260408084206001600160a01b03909616845294909101905291909120555b82805480611476576114766126ad565b5f82815260208082205f19908401810180546001600160a01b0319169055909201909255878252600480825260408084206001600160a01b038a168086529201835280842084905560058352808420939093558251898152918201527f1c4c9d2e56d0635d11bc47c997c6909a0d7061f55cbb8f4b27386db37553191c91015b60405180910390a1505050505050565b336001600160a01b037f0000000000000000000000000000000000000000000000000000000000000000161461154e5760405162461bcd60e51b815260040161016b90612531565b5f805f5460ff166003811115611566576115666124d7565b146115835760405162461bcd60e51b815260040161016b90612575565b5f8381526004602052604090206002015460ff166115b35760405162461bcd60e51b815260040161016b9061263e565b7f00000000000000000000000000000000000000000000000000000000000000006001600160a01b0316826001600160a01b0316036116425760405162461bcd60e51b815260206004820152602560248201527f446174654c6f74746572793a206f776e65722063616e6e6f742062652061206d60448201526432b6b132b960d91b606482015260840161016b565b6001600160a01b0382166116a65760405162461bcd60e51b815260206004820152602560248201527f446174654c6f74746572793a207a65726f2061646472657373206e6f7420616c6044820152641b1bddd95960da1b606482015260840161016b565b6001600160a01b0382165f908152600560205260409020541561171b5760405162461bcd60e51b815260206004820152602760248201527f446174654c6f74746572793a206164647265737320616c726561647920696e206044820152660612067726f75760cc1b606482015260840161016b565b5f8381526004602081815260408084206003810180546001810182558187528487200180546001600160a01b0319166001600160a01b038a1690811790915590548187529190940183528185205560058252928390208690558251868152908101919091527ff328ac0f8bcae00933fe87ba0aa2d0d505c1df94bc9c1aa05b8441c28b74032c9101610ee0565b336001600160a01b037f000000000000000000000000000000000000000000000000000000000000000016146117f05760405162461bcd60e51b815260040161016b90612531565b5f805f5460ff166003811115611808576118086124d7565b146118255760405162461bcd60e51b815260040161016b90612575565b5f8481526004602052604090206002015460ff16156118925760405162461bcd60e51b8152602060048201526024808201527f446174654c6f74746572793a2067726f757020494420616c72656164792065786044820152636973747360e01b606482015260840161016b565b835f036118ed5760405162461bcd60e51b815260206004820152602360248201527f446174654c6f74746572793a2067726f757020494420302069732072657365726044820152621d995960ea1b606482015260840161016b565b5f84815260046020526040902084815560010161190b83858361270d565b505f84815260046020526040808220600201805460ff191660019081179091556003805491820181559092527fc2575a0e9e593c00f959f8c92f12db2869c3395a3b0502d05e2516446f71f85b909101859055517f5af11c98adc36633c6174ad716d6ab8337d059c6c1b6b32ae03db2fd0ab51947906112439086815260200190565b6001805f5460ff1660038111156119a7576119a76124d7565b146119c45760405162461bcd60e51b815260040161016b90612575565b335f9081526005602052604081205490819003611a3a5760405162461bcd60e51b815260206004820152602e60248201527f446174654c6f74746572793a2063616c6c6572206973206e6f7420612072656760448201526d34b9ba32b932b21036b2b6b132b960911b606482015260840161016b565b335f9081526006602052604090205460ff1615611aa75760405162461bcd60e51b815260206004820152602560248201527f446174654c6f74746572793a2062616c6c6f7420616c7265616479207375626d6044820152641a5d1d195960da1b606482015260840161016b565b600154838114611b175760405162461bcd60e51b815260206004820152603560248201527f446174654c6f74746572793a2062616c6c6f74206c656e677468206d75737420604482015274657175616c206e756d626572206f6620646174657360581b606482015260840161016b565b5f8167ffffffffffffffff811115611b3157611b316125bd565b604051908082528060200260200182016040528015611b5a578160200160208202803683370190505b5090505f5b82811015611cf0575f878783818110611b7a57611b7a6125d1565b602090810292909201355f81815260029093526040909220549192505060ff16611bf25760405162461bcd60e51b815260206004820152602360248201527f446174654c6f74746572793a20756e6b6e6f776e206461746520696e2062616c6044820152621b1bdd60ea1b606482015260840161016b565b5f611bfc8261212c565b9050838181518110611c1057611c106125d1565b602002602001015115611c735760405162461bcd60e51b815260206004820152602560248201527f446174654c6f74746572793a206475706c6963617465206461746520696e2062604482015264185b1b1bdd60da1b606482015260840161016b565b6001848281518110611c8757611c876125d1565b911515602092830291909101909101525f611ca2848761260c565b5f8881526007602052604090208054919250829184908110611cc657611cc66125d1565b905f5260205f20015f828254611cdc91906125f9565b909155505060019093019250611b5f915050565b50335f81815260066020908152604091829020805460ff19166001179055815192835282018590527fc10aa7c6f925df388007bb3a25ec9909b72ef0750bfdf7028641ecbaed892dcf91016114f6565b336001600160a01b037f00000000000000000000000000000000000000000000000000000000000000001614611d885760405162461bcd60e51b815260040161016b90612531565b5f805f5460ff166003811115611da057611da06124d7565b14611dbd5760405162461bcd60e51b815260040161016b90612575565b6003546002811015611e235760405162461bcd60e51b815260206004820152602960248201527f446174654c6f74746572793a206174206c656173742074776f2067726f757073604482015268081c995c5d5a5c995960ba1b606482015260840161016b565b6001548114611e9a5760405162461bcd60e51b815260206004820152603860248201527f446174654c6f74746572793a206e756d626572206f66206461746573206d757360448201527f7420657175616c206e756d626572206f662067726f7570730000000000000000606482015260840161016b565b5f5b81811015611fbb575f60038281548110611eb857611eb86125d1565b905f5260205f2001549050600160045f8381526020019081526020015f20600301805490501015611f4a5760405162461bcd60e51b815260206004820152603660248201527f446174654c6f74746572793a2065766572792067726f7570206d7573742068616044820152753b329030ba103632b0b9ba1037b7329036b2b6b132b960511b606482015260840161016b565b60015467ffffffffffffffff811115611f6557611f656125bd565b604051908082528060200260200182016040528015611f8e578160200160208202803683370190505b505f8281526007602090815260409091208251611fb19391929190910190612214565b5050600101611e9c565b505f805460ff191660011781556040517fa737faa632a36c00ccb4220893426e922f9442f1cab67acd8301f88a596d4abc9190a15050565b6060600380548060200260200160405190810160405280929190818152602001828054801561053d57602002820191905f5260205f2090815481526020019060010190808311610529575050505050905090565b336001600160a01b037f0000000000000000000000000000000000000000000000000000000000000000161461208f5760405162461bcd60e51b815260040161016b90612531565b6001805f5460ff1660038111156120a8576120a86124d7565b146120c55760405162461bcd60e51b815260040161016b90612575565b5f805460ff191660021781556040517f66b6cb4a09abc3bf1cacc3c67420258856ffdad0deba9078cbd1658957b502189190a150565b5f82815260076020526040812080548390811061211a5761211a6125d1565b905f5260205f20015490505b92915050565b6001545f90815b8181101561216c57836001828154811061214f5761214f6125d1565b905f5260205f20015403612164579392505050565b600101612133565b5060405162461bcd60e51b815260206004820152602160248201527f446174654c6f74746572793a206461746520696e646578206e6f7420666f756e6044820152601960fa1b606482015260840161016b565b5080546121cb90612675565b5f825580601f106121da575050565b601f0160209004905f5260205f20908101906121f6919061225d565b50565b5080545f8255905f5260205f20908101906121f6919061225d565b828054828255905f5260205f2090810192821561224d579160200282015b8281111561224d578251825591602001919060010190612232565b5061225992915061225d565b5090565b5b80821115612259575f815560010161225e565b6020808252602b908201527f446174654c6f74746572793a20636f6e747261637420646f6573206e6f74206160408201526a31b1b2b83a1022ba3432b960a91b606082015260800190565b80356001600160a01b03811681146122d2575f5ffd5b919050565b5f602082840312156122e7575f5ffd5b6122f0826122bc565b9392505050565b602080825282518282018190525f918401906040840190835b8181101561232e578351835260209384019390920191600101612310565b509095945050505050565b5f60208284031215612349575f5ffd5b5035919050565b602081525f82518060208401528060208501604085015e5f604082850101526040601f19601f83011684010191505092915050565b602080825282518282018190525f918401906040840190835b8181101561232e5783516001600160a01b031683526020938401939092019160010161239e565b5f5f604083850312156123d6575f5ffd5b823591506123e6602084016122bc565b90509250929050565b5f5f5f60408486031215612401575f5ffd5b83359250602084013567ffffffffffffffff81111561241e575f5ffd5b8401601f8101861361242e575f5ffd5b803567ffffffffffffffff811115612444575f5ffd5b866020828401011115612455575f5ffd5b939660209190910195509293505050565b5f5f60208385031215612477575f5ffd5b823567ffffffffffffffff81111561248d575f5ffd5b8301601f8101851361249d575f5ffd5b803567ffffffffffffffff8111156124b3575f5ffd5b8560208260051b84010111156124c7575f5ffd5b6020919091019590945092505050565b634e487b7160e01b5f52602160045260245ffd5b602081016004831061250b57634e487b7160e01b5f52602160045260245ffd5b91905290565b5f5f60408385031215612522575f5ffd5b50508035926020909101359150565b60208082526024908201527f446174654c6f74746572793a2063616c6c6572206973206e6f7420746865206f6040820152633bb732b960e11b606082015260800190565b60208082526028908201527f446174654c6f74746572793a2077726f6e6720706861736520666f7220746869604082015267399030b1ba34b7b760c11b606082015260800190565b634e487b7160e01b5f52604160045260245ffd5b634e487b7160e01b5f52603260045260245ffd5b634e487b7160e01b5f52601160045260245ffd5b80820180821115612126576121266125e5565b81810381811115612126576121266125e5565b5f8261263957634e487b7160e01b5f52601260045260245ffd5b500690565b6020808252601c908201527f446174654c6f74746572793a2067726f7570206e6f7420666f756e6400000000604082015260600190565b600181811c9082168061268957607f821691505b6020821081036126a757634e487b7160e01b5f52602260045260245ffd5b50919050565b634e487b7160e01b5f52603160045260245ffd5b601f82111561270857805f5260205f20601f840160051c810160208510156126e65750805b601f840160051c820191505b81811015612705575f81556001016126f2565b50505b505050565b67ffffffffffffffff831115612725576127256125bd565b612739836127338354612675565b836126c1565b5f601f84116001811461276a575f85156127535750838201355b5f19600387901b1c1916600186901b178355612705565b5f83815260208120601f198716915b828110156127995786850135825560209485019460019092019101612779565b50868210156127b5575f1960f88860031b161c19848701351681555b505060018560011b018355505050505056fea264697066735822122017d1c63daf7114409de5a56113b2b964f5b7053a86df75a6133b1466516b61c464736f6c634300081c0033",
  "linkReferences": {},
  "deployedLinkReferences": {},
  "immutableReferences": {
    "22": [
      {
        "length": 32,
        "start": 990
      },
      {
        "length": 32,
        "start": 1362
      },
      {
        "length": 32,
        "start": 2927
      },
      {
        "length": 32,
        "start": 3372
      },
      {
        "length": 32,
        "start": 4154
      },
      {
        "length": 32,
        "start": 4700
      },
      {
        "length": 32,
        "start": 5393
      },
      {
        "length": 32,
        "start": 5557
      },
      {
        "length": 32,
        "start": 6067
      },
      {
        "length": 32,
        "start": 7499
      },
      {
        "length": 32,
        "start": 8274
      }
    ]
  },
  "inputSourceName": "project/contracts/DateLottery.sol",
  "buildInfoId": "solc-0_8_28-857677f0968a199bf6e1abcb97e4322db2771411"
}